:100000000C9462000C9441050C941A050C948A001F
:100010000C948A000C948A000C948A000C948A0038
:100020000C948A000C948A000C948A000C948A0028
:100030000C948A000C948A000C948A000C948A0018
:100040000C94D0040C948A000C948E050C946805D2
:100050000C948A000C948A000C948A000C948A00F8
:100060000C948A000C948A000000000024002700F1
:100070002A0000000000250028002B0000000000DE
:1000800023002600290004040404040404040202DA
:100090000202020203030303030301020408102007
:1000A0004080010204081020010204081020000012
:1000B0000008000201000003040700000000000027
:1000C0000000C00511241FBECFEFD8E0DEBFCDBFBA
:1000D00011E0A0E0B1E0E2E6FDE102C005900D9282
:1000E000AA35B107D9F722E0AAE5B1E001C01D9217
:1000F000AA32B207E1F710E0C2E6D0E004C02197CF
:10010000FE010E94A40EC136D107C9F70E94F9056D
:100110000C94AF0E0C940000833081F028F48130F1
:1001200099F08230A1F008958730A9F08830B9F0B5
:100130008430D1F4809180008F7D03C08091800055
:100140008F7780938000089584B58F7702C084B53F
:100150008F7D84BD08958091B0008F7703C080911A
:10016000B0008F7D8093B0000895CF93DF93282F48
:1001700030E0F901E255FF4F8491F901E656FF4F57
:10018000D491F901EA57FF4FC491CC2391F081112A
:100190000E948C00EC2FF0E0EE0FFF1FE458FF4FA1
:1001A000A591B491EC91ED2381E090E021F480E001
:1001B00002C080E090E0DF91CF9108951F93CF932C
:1001C000DF93282F30E0F901E255FF4F8491F901C8
:1001D000E656FF4FD491F901EA57FF4FC491CC2363
:1001E000C1F0162F81110E948C00EC2FF0E0EE0F71
:1001F000FF1FEE58FF4FA591B4919FB7F8941111CE
:1002000004C08C91D095D82302C0EC91DE2BDC93F6
:100210009FBFDF91CF911F910895CF93DF9390E01F
:10022000FC01E656FF4F2491FC01EA57FF4F8491F1
:10023000882361F190E0880F991FFC01E859FF4F76
:10024000C591D491FC01EE58FF4FA591B491611175
:1002500009C09FB7F8948881209582238883EC9108
:100260002E230BC0623061F49FB7F8948881322F3F
:10027000309583238883EC912E2B2C939FBF06C04F
:100280008FB7F894E8812E2B28838FBFDF91CF9111
:1002900008958E3008F08E502091240190E4299F1B
:1002A000900111248770822B80937C0080917A00CA
:1002B000806480937A0080917A0086FDFCCF8091E3
:1002C00078002091790090E0922B08953FB7F89440
:1002D0008091810190918201A0918301B09184016C
:1002E00026B5A89B05C02F3F19F00196A11DB11D91
:1002F0003FBFBA2FA92F982F8827820F911DA11DCC
:10030000B11DBC01CD0142E0660F771F881F991F08
:100310004A95D1F708958F929F92AF92BF92CF9254
:10032000DF92EF92FF926B017C010E9466014B010C
:100330005C01C114D104E104F104F1F00E946601F2
:10034000DC01CB0188199909AA09BB09883E9340B1
:10035000A105B10570F321E0C21AD108E108F10846
:1003600088EE880E83E0981EA11CB11CC114D10434
:10037000E104F10419F7DDCFFF90EF90DF90CF900B
:10038000BF90AF909F908F9008952FB7F894609191
:100390007D0170917E0180917F01909180012FBF3E
:1003A000089583E00E94B50020915F0130916001C3
:1003B000892B19F42F5F3F4F02C021503109309330
:1003C000600120935F0180915F0190916001883E00
:1003D000934034F087EE93E09093600180935F0147
:1003E00080915F019091600197FF04C010926001BD
:1003F00010925F0160915F0170916001072E000C07
:10040000880B990B0E944B0D2CE934EC40E25FE322
:100410000E94000E609378017093790180937A01B5
:1004200090937B0181E08093610108950895CF92BC
:10043000DF92EF92FF920F931F93CF93DF936C01A4
:100440007A018B01C0E0D0E0CE15DF0581F0D80144
:100450006D918D01D601ED91FC910190F081E02D1F
:10046000C6010995892B11F02196EECF7E01C701B7
:10047000DF91CF911F910F91FF90EF90DF90CF9080
:100480000895089580E090E00895FC01538D448D17
:10049000252F30E0842F90E0821B930B541710F02F
:1004A000CF96089501970895FC01918D828D98173C
:1004B00061F0828DDF01A80FB11D5D968C91928D48
:1004C0009F5F9F73928F90E008958FEF9FEF089545
:1004D000FC01918D828D981731F0828DE80FF11D0E
:1004E000858D90E008958FEF9FEF0895FC01918D29
:1004F000228D892F90E0805C9F4F821B91098F7322
:100500009927089585E891E00E94760221E0892BE1
:1005100009F420E0822F0895FC01848DDF01A80FEB
:10052000B11DA35ABF4F2C91848D90E001968F731B
:100530009927848FA689B7892C93A089B1898C913A
:10054000837080648C93938D848D981306C0028889
:10055000F389E02D80818F7D80830895EF92FF9253
:100560000F931F93CF93DF93EC0181E0888F9B8DD6
:100570008C8D981305C0E889F989808185FD26C096
:10058000F62E0B8D10E00F5F1F4F0F731127E02E1B
:100590008C8DE8120CC00FB607FCFACFE889F989F8
:1005A000808185FFF5CFCE010E948C02F1CF8B8D2B
:1005B000FE01E80FF11DE35AFF4FF0829FB7F89458
:1005C0000B8FEA89FB89808180620AC09FB7F8940B
:1005D000EE89FF896083E889F9898081837080646E
:1005E00080839FBF81E090E0DF91CF911F910F91B9
:1005F000FF90EF900895CF93DF93EC01888D8823CF
:10060000C9F0EA89FB89808185FD05C0A889B9897F
:100610008C9186FD0FC00FB607FCF5CF808185FF5A
:10062000F2CFA889B9898C9185FFEDCFCE010E94C8
:100630008C02E7CFDF91CF91089580E090E0892B85
:1006400029F00E94820281110C94000008951F93EA
:10065000CF93DF93D82F162FC0E0C11799F060E039
:100660008CE00E94DE00D7FF02C061E001C060E0C4
:1006700087E00E94DE0061E08CE00E94DE00DD0F7A
:10068000CF5FEBCFDF91CF911F910895CF93DF9391
:10069000D82FC62F60E08DE00E94DE0063E080EA84
:1006A0000E94270366E08D2F880F880F0E94270382
:1006B00068E08C2F0E94270361E08DE0DF91CF91ED
:1006C0000C94DE00CF93C82F60E08DE00E94DE0026
:1006D00064E080E80E94270368E08C2F0E942703D3
:1006E00061E08DE0CF910C94DE00CF92DF92EF922B
:1006F000FF920F931F93CF93DF938C01EB010E9426
:10070000C501C0900001D0900101E0900201F0907D
:100710000301DC01CB018C199D09AE09BF09C09012
:100720000401D0900501E0900601F0900701C81681
:10073000D906EA06FB0628F080916101882309F4B6
:1007400024C12AE030E0C801B9010E946D0E9093E7
:100750006A0180936901CB01B9010E946D0E9093EB
:10076000680180936701E4E6F0E0C801BF010E94E0
:100770006D0ECB01B9010E946D0E909366018093BE
:100780006501CE01B9010E946D0E6C01909370015C
:1007900080936F01CB01B9010E946D0E8C01909383
:1007A0006E0180936D01CE01BF010E946D0ECB01E1
:1007B000B9010E946D0EEC0190936C0180936B0166
:1007C000F12C60E08F2D0E944603F394F39480E2B5
:1007D000F812F7CFF601EB5DFE4F608180E00E94DA
:1007E00046030115110589F5209779F520E030E0E1
:1007F000A9016091740170917501809176019091C9
:1008000077010E949C0C87FFB9C00E94C50100912E
:100810001C0110911D0120911E0130911F01DC016E
:10082000CB01801B910BA20BB30B00912001109107
:1008300021012091220130912301081719072A076D
:100840003B0708F09BC062E09AC0F801EB5DFE4FE9
:10085000608182E00E9446032097B1F520E030E0FD
:10086000A901609174017091750180917601909158
:1008700077010E949C0C87FF86C080916D0190914A
:100880006E01892B09F47FC00E94C50100911C01F3
:1008900010911D0120911E0130911F01DC01CB013F
:1008A000801B910BA20BB30B009120011091210131
:1008B0002091220130912301081719072A073B07CD
:1008C00008F061C062E804C0CB5DDE4F688160580B
:1008D00084E00E94460360916201611106C080912C
:1008E0005A0191E0982790935A0180915A01811101
:1008F00080E8E0916901F0916A01EB5DFE4F908123
:10090000690F680F86E00E9446038091670190910D
:100910006801009749F42091650130916601232B0D
:1009200019F46091630107C0FC01EB5DFE4F60812B
:1009300080916301680F88E00E9446038091650101
:1009400090916601009719F46091640107C0FC0161
:10095000EB5DFE4F608180916401680F8AE00E9428
:1009600046030E94C50160930001709301018093CA
:100970000201909303011092610107C060E082E0E0
:100980000E9446036BCF60E8A3CFDF91CF911F9108
:100990000F91FF90EF90DF90CF9008950E94AA0EE4
:1009A0001F920F920FB60F9211242F933F938F93A4
:1009B0009F93AF93BF9380917D0190917E01A09111
:1009C0007F01B091800130917C0123E0230F2D370E
:1009D00020F40196A11DB11D05C026E8230F029643
:1009E000A11DB11D20937C0180937D0190937E0118
:1009F000A0937F01B0938001809181019091820149
:100A0000A0918301B09184010196A11DB11D809335
:100A1000810190938201A0938301B0938401BF91DF
:100A2000AF919F918F913F912F910F900FBE0F909B
:100A30001F9018951F920F920FB60F9211242F93AB
:100A40003F934F935F936F937F938F939F93AF9356
:100A5000BF93EF93FF93E0910A01F0910B01099589
:100A6000FF91EF91BF91AF919F918F917F916F9186
:100A70005F914F913F912F910F900FBE0F901F905C
:100A800018951F920F920FB60F9211242F933F9338
:100A90004F935F936F937F938F939F93AF93BF9386
:100AA000EF93FF93E0910801F09109010995FF91FF
:100AB000EF91BF91AF919F918F917F916F915F91D6
:100AC0004F913F912F910F900FBE0F901F9018954F
:100AD0001F920F920FB60F9211242F933F934F93B3
:100AE0005F936F937F938F939F93AF93BF93EF9396
:100AF000FF9385E891E00E948C02FF91EF91BF91F6
:100B0000AF919F918F917F916F915F914F913F91A5
:100B10002F910F900FBE0F901F9018951F920F925C
:100B20000FB60F9211242F938F939F93EF93FF9300
:100B3000E0919501F09196018081E0919B01F09107
:100B40009C0182FD12C0908180919E018F5F8F7306
:100B500020919F01821751F0E0919E01F0E0EB5748
:100B6000FE4F958F80939E0101C08081FF91EF9190
:100B70009F918F912F910F900FBE0F901F901895FE
:100B8000E5E8F1E01382128288EE93E0A0E0B0E0A5
:100B900084839583A683B78387E491E091838083E0
:100BA00085EC90E09587848784EC90E09787868732
:100BB00080EC90E0918B808B81EC90E0938B828B2A
:100BC00082EC90E0958B848B86EC90E0978B868B03
:100BD000118E128E138E148E80E29EE4A0E0B0E09F
:100BE0008093260290932702A0932802B0932902B3
:100BF0000895CF93DF93CDB7DEB764970FB6F8941F
:100C0000DEBF0FBECDBF789484B5826084BD84B54D
:100C1000816084BD85B5826085BD85B5816085BDF7
:100C200080916E00816080936E00109281008091AF
:100C30008100826080938100809181008160809337
:100C40008100809180008160809380008091B1005C
:100C500084608093B1008091B00081608093B00087
:100C600080917A00846080937A0080917A0082601B
:100C700080937A0080917A00816080937A008091DD
:100C80007A00806880937A001092C10083E080939C
:100C90002401E0919501F091960182E08083E0913A
:100CA0009101F09192011082E0919301F0919401F1
:100CB00080E1808310929D01E0919901F0919A0169
:100CC00086E08083E0919701F091980180818061B6
:100CD0008083E0919701F091980180818860808302
:100CE000E0919701F0919801808180688083E09184
:100CF0009701F091980180818F7D808341E050E0E1
:100D000065E571E085E891E00E94170242E050E05D
:100D100067E571E085E891E00E94170261E08DE0EF
:100D20000E940D0161E08CE00E940D0161E087E00E
:100D30000E940D0160E085E10E940D0161E085E007
:100D40000E940D0161E085E00E940D0161E085E0F7
:100D50000E94DE0062E082E00E940D0162E083E01A
:100D60000E940D0161E08DE00E94DE0061E087E0FD
:100D70000E94DE0061E08CE00E94DE0062E370E031
:100D800080E090E00E948B0182E00E94620380E399
:100D90000E94620382E50E94620386E00E94620371
:100DA00019826FEF89810E94460329812E5F298372
:100DB0002032B9F781E08093610184E10E9449010A
:100DC000BC01990F880B990B0E944B0D2CEF39EA4F
:100DD0004DE850E40E94000E20E030E040EC50E48A
:100DE0000E94000E20E030EC4FE754E40E94A10C7A
:100DF0002DEC3CEC4CE85FE30E94300C20E030E04E
:100E000048EC52E40E94000E0E94130D2B013C019D
:100E10000E94C5012AE0C22ED12CE12CF12CC30185
:100E2000B201A70196010E94DF0B6D837E838F8341
:100E300098878D819E819093700180936F01CA0184
:100E4000B901A70196010E94DF0B69877A878B871A
:100E50009C87E985FA85F0936E01E0936D01C301EB
:100E6000B20124E630E040E050E00E94DF0BCA010E
:100E7000B901A70196010E94DF0B6D877E878F87DE
:100E8000988B2D853E8530936C0120936B01C301B7
:100E9000B20128EE33E040E050E00E94DF0BCA01CF
:100EA000B901A70196010E94DF0B4B015C017A8B0F
:100EB000698B70936A0160936901C301B20120E1FB
:100EC00037E240E050E00E94DF0BCA01B901A70100
:100ED00096010E94DF0B69837A838B839C83298030
:100EE0003A803092680120926701C301B20120EA82
:100EF00036E841E050E00E94DF0BCA01B901A701CA
:100F000096010E94DF0B2B013C017C8B6B8B709355
:100F100066016093650110E060E0812F0E94460346
:100F20001E5F1032C9F7ED81FE81EB5DFE4F6081DF
:100F300080E00E944603E985FA85EB5DFE4F608103
:100F4000605882E00E944603ED85FE85EB5DFE4F12
:100F5000608184E00E94460360916201611106C0D5
:100F600090915A0181E0892780935A0180915A011A
:100F7000882311F080E801C080E0E989FA89EF2B2D
:100F800061F42114310449F42B893C89232B29F481
:100F9000680F86E00E9446030FC0F401EB5DFE4F30
:100FA0009081690F680F86E00E944603232851F460
:100FB0008B899C89892B31F46091630188E00E94C0
:100FC00046030FC010916401E981FA81EB5DFE4F89
:100FD0006081610F88E00E944603EB89FC89EF2B5A
:100FE00019F46091640105C0F201EB5DFE4F608170
:100FF000610F8AE00E9446030E94C50160930001D0
:10100000709301018093020190930301109261019A
:1010100060ED77E080E090E00E948B0180E090E05E
:101020000E94C90B182F81E090E00E94C90BFAE0E2
:101030008F9FC00111249C0144E6149F200D311D97
:1010400011243A83298382E090E00E94C90BE98150
:10105000FA81E80FF11DFA83E983BF01FF0F880BC6
:10106000990B0E944B0D60937801709379018093E6
:101070007A0190937B0129813A8130937301209307
:10108000720160935B0170935C0180935D019093AA
:101090005E0181ED91E090930901809308018091B8
:1010A00069008C7F826080936900E89A812C84E0DB
:1010B000982EA12CB12C93EB292E90E0392E0E9472
:1010C000C50100910C0110910D0120910E0130918C
:1010D0000F01DC01CB01801B910BA20BB30B009124
:1010E0001001109111012091120130911301081784
:1010F00019072A073B0708F05EC0C0907801D0901E
:101100007901E0907A01F0907B0120915B013091B0
:101110005C0140915D0150915E01C701B6010E94E2
:101120002F0C6093740170937501809376019093F6
:101130007701C0925B01D0925C01E0925D01F09278
:101140005E0120E030E046EC52E40E94FB0D1816F0
:1011500064F480E090E0A6ECB2E480937401909394
:101160007501A0937601B093770120E030E046EC62
:1011700052EC6091740170917501809176019091AB
:1011800077010E949C0C87FF0CC080E090E0A6ECE9
:10119000B2EC8093740190937501A0937601B093A3
:1011A00077010E94C50160930C0170930D0180933B
:1011B0000E0190930F010E94C501409020015090B4
:1011C0002101609022017090230100911C01109177
:1011D0001D0120911E0130911F01DC01CB01801BFC
:1011E000910BA20BB30B481659066A067B0608F052
:1011F00016C188E00E94B500082F89E00E94B50062
:10120000182F84E00E94B500013009F06FC0111161
:10121000E8C08111E6C0C0907401D0907501E090E3
:101220007601F090770120E030E0A901C701B60116
:101230000E94FB0D18165CF420E030E040E450E41E
:10124000C701B6010E94FB0D87FF0BC00FC020E055
:1012500030E040E450ECC701B6010E949C0C181627
:101260002CF020E030E040E251E404C020E030E027
:1012700040E85FE3609178017091790180917A0193
:1012800090917B010E94300C6093780170937901FA
:1012900080937A0190937B0120E030EC49E754E49D
:1012A000609178017091790180917A0190917B0130
:1012B0000E94FB0D181664F480E090ECA9E7B4E4FA
:1012C0008093780190937901A0937A01B0937B0188
:1012D0000E94C50160931C0170931D0180931E0143
:1012E00090931F0131E0309361017BC0011135C241
:1012F000113009F068C0811174C0C0907401D090A1
:101300007501E0907601F090770120E030E0A901CE
:10131000C701B6010E94FB0D18165CF420E030E016
:1013200040E450E4C701B6010E94FB0D87FF0BC0EB
:101330000FC020E030E040E450ECC701B6010E944D
:101340009C0C18162CF020E030E040E251E404C080
:1013500020E030E040E85FE360917801709179012E
:1013600080917A0190917B010E942F0C609378010B
:101370007093790180937A0190937B0120E030E0B3
:10138000A901609178017091790180917A01909121
:101390007B010E949C0C87FF08C01092780110927C
:1013A000790110927A0110927B010E94C50160932D
:1013B0001C0170931D0180931E0190931F0141E059
:1013C000409361010EC01111CBC18130F1F4109234
:1013D00078011092790110927A0110927B0180932A
:1013E00061012CE934EC40E25FE360917801709197
:1013F000790180917A0190917B010E94A10C0E9459
:10140000130D7093600160935F010E94C5016093AA
:101410001C0170931D0180931E0190931F010E9477
:10142000C50100911C0110911D0120911E013091F8
:101430001F01DC01CB01801B910BA20BB30B8415A8
:101440009505A605B70578F460917801709179014A
:1014500080917A0190917B010E94130DDC01CB01F8
:1014600060E070E027C0C0907401D0907501E090FA
:101470007601F090770120E030E0A901C701B601C4
:101480000E94FB0D18161CF4C701B60103C0C7016A
:10149000B60190580E94130D8B01609178017091F4
:1014A000790180917A0190917B010E94130DDC01FA
:1014B000CB01B8010E94750384E10E9449018C01AF
:1014C0000E94C501C0901401D0901501E090160152
:1014D000F0901701DC01CB018C199D09AE09BF0901
:1014E000C0901801D0901901E0901A01F0901B01F2
:1014F000C816D906EA06FB0608F02CC1B801110F80
:10150000880B990B0E944B0D2CEF39EA4DE850E403
:101510000E94000E20E030E040EC50E40E94000EFB
:1015200020E030EC4FE754E40E94A10C2DEC3CECA1
:101530004CE85FE30E94300C6B017C0123E333E352
:101540004BE451E40E94FB0D181644F480E88093AC
:101550006401809363018093620148C026E636E609
:1015600046E451E4C701B6010E94FB0D181694F43D
:1015700023E333E34BE451E4C701B6010E949C0C22
:10158000181644F01092640190E8909363019093D0
:1015900062012CC023E333E343E451E4C701B60105
:1015A0000E94FB0D181694F426E636E646E451E454
:1015B000C701B6010E949C0C181644F010926401F9
:1015C00010926301E0E8E093620110C023E333E38B
:1015D00043E451E4C701B6010E949C0C181634F094
:1015E00010926401109263011092620185E10E94E1
:1015F00049019C01A1E0BFEF0E94810EA501940169
:101600000E94DF0B69017A01FFEFCF0ED11CE11CB4
:10161000F11C860161E085E00E940D01C114D10436
:1016200011F460E004C00F3F110529F461E085E08A
:101630000E94DE0042C0F10184918330F9F048F449
:101640008130B9F08230A1F584B5806284BDC8BC18
:1016500034C08730E9F0883019F1843049F5809141
:101660008000806280938000D0928B00C0928A00BC
:1016700024C084B5806884BDC7BC1FC08091800031
:10168000806880938000D0928900C092880015C045
:101690008091B00080688093B000C092B3000DC00C
:1016A0008091B00080628093B000C092B40005C009
:1016B000003811050CF0BACFB4CF60917801709169
:1016C000790180917A0190917B010E94130D209104
:1016D0007201309173012617370789F070937301F7
:1016E000609372010E94C5016093220270932302ED
:1016F0008093240290932502F1E0F09371010E94FF
:10170000C501009122021091230220912402309100
:101710002502DC01CB01801B910BA20BB30B0091C6
:1017200026021091270220912802309129020817E1
:1017300019072A073B0720F480917101811114C019
:101740000E94C501609314017093150180931601E6
:10175000909317010E941D03B2CC113009F441CEC1
:10176000813009F052CE3DCE109271016091650139
:1017700080E090E00E94D10B6091670181E090E0F1
:101780000E94D10B6091690182E090E00E94D10B30
:10179000D7CFF999FECF92BD81BDF89A992780B530
:1017A0000895262FF999FECF1FBA92BD81BD20BDA5
:1017B0000FB6F894FA9AF99A0FBE01960895052E7D
:1017C00097FB1EF400940E94F60B57FD07D00E9471
:1017D000FE0B07FC03D04EF40C94F60B509540958D
:1017E000309521953F4F4F4F5F4F089590958095CD
:1017F000709561957F4F8F4F9F4F0895A1E21A2EEC
:10180000AA1BBB1BFD010DC0AA1FBB1FEE1FFF1FA4
:10181000A217B307E407F50720F0A21BB30BE40BF4
:10182000F50B661F771F881F991F1A9469F760953B
:101830007095809590959B01AC01BD01CF010895F5
:10184000A29FB001B39FC001A39F700D811D112401
:10185000911DB29F700D811D1124911D0895505846
:10186000BB27AA270E94470C0C94C10D0E94B30D00
:1018700038F00E94BA0D20F039F49F3F19F426F495
:101880000C94B00D0EF4E095E7FB0C94AA0DE92F33
:101890000E94D20D58F3BA176207730784079507A1
:1018A00020F079F4A6F50C94F40D0EF4E0950B2ECF
:1018B000BA2FA02D0B01B90190010C01CA01A001A2
:1018C0001124FF27591B99F0593F50F4503E68F1FD
:1018D0001A16F040A22F232F342F4427585FF3CF3E
:1018E000469537952795A795F0405395C9F77EF40F
:1018F0001F16BA0B620B730B840BBAF09150A1F058
:10190000FF0FBB1F661F771F881FC2F70EC0BA0FDD
:10191000621F731F841F48F4879577956795B79565
:10192000F7959E3F08F0B0CF9395880F08F0992760
:10193000EE0F9795879508950E94860D08F481E033
:1019400008950E94B50C0C94C10D0E94BA0D58F078
:101950000E94B30D40F029F45F3F29F00C94AA0DCA
:1019600051110C94F50D0C94B00D0E94D20D68F33A
:101970009923B1F3552391F3951B550BBB27AA2748
:1019800062177307840738F09F5F5F4F220F331F82
:10199000441FAA1FA9F335D00E2E3AF0E0E832D04A
:1019A00091505040E695001CCAF72BD0FE2F29D04D
:1019B000660F771F881FBB1F261737074807AB071F
:1019C000B0E809F0BB0B802DBF01FF2793585F4F94
:1019D0003AF09E3F510578F00C94AA0D0C94F50D49
:1019E0005F3FE4F3983ED4F3869577956795B79576
:1019F000F7959F5FC9F7880F911D9695879597F981
:101A00000895E1E0660F771F881FBB1F62177307F9
:101A10008407BA0720F0621B730B840BBA0BEE1F0E
:101A200088F7E09508950E941A0D6894B1110C94FE
:101A3000F50D08950E94DA0D88F09F5798F0B92FA0
:101A40009927B751B0F0E1F0660F771F881F991FF3
:101A50001AF0BA95C9F714C0B13091F00E94F40D94
:101A6000B1E008950C94F40D672F782F8827B85FA4
:101A700039F0B93FCCF3869577956795B395D9F74B
:101A80003EF490958095709561957F4F8F4F9F4F55
:101A90000895E89409C097FB3EF490958095709561
:101AA00061957F4F8F4F9F4F9923A9F0F92F96E9AA
:101AB000BB279395F695879577956795B795F1111F
:101AC000F8CFFAF4BB0F11F460FF1BC06F5F7F4FBC
:101AD0008F4F9F4F16C0882311F096E911C07723CE
:101AE00021F09EE8872F762F05C0662371F096E8D7
:101AF000862F70E060E02AF09A95660F771F881FA6
:101B0000DAF7880F9695879597F90895990F000849
:101B1000550FAA0BE0E8FEEF16161706E807F907BF
:101B2000C0F012161306E407F50798F0621B730B5A
:101B3000840B950B39F40A2661F0232B242B252BDB
:101B400021F408950A2609F4A140A6958FEF811D7E
:101B5000811D089597F99F6780E870E060E008951F
:101B60009FEF80EC089500240A94161617061806B5
:101B70000906089500240A94121613061406050691
:101B80000895092E0394000C11F4882352F0BB0F22
:101B900040F4BF2B11F460FF04C06F5F7F4F8F4F85
:101BA0009F4F089557FD9058440F551F59F05F3FC0
:101BB00071F04795880F97FB991F61F09F3F79F06F
:101BC00087950895121613061406551FF2CF4695F1
:101BD000F1DF08C0161617061806991FF1CF869573
:101BE0007105610508940895E894BB276627772757
:101BF000CB0197F908950E94860D08F48FEF0895A0
:101C00000E94130E0C94C10D0E94B30D38F00E9477
:101C1000BA0D20F0952311F00C94AA0D0C94B00D80
:101C200011240C94F50D0E94D20D70F3959FC1F311
:101C3000950F50E0551F629FF001729FBB27F00D7A
:101C4000B11D639FAA27F00DB11DAA1F649F6627CF
:101C5000B00DA11D661F829F2227B00DA11D621F1E
:101C6000739FB00DA11D621F839FA00D611D221FD8
:101C7000749F3327A00D611D231F849F600D211DBC
:101C8000822F762F6A2F11249F5750409AF0F1F03F
:101C900088234AF0EE0FFF1FBB1F661F771F881FA8
:101CA00091505040A9F79E3F510580F00C94AA0D29
:101CB0000C94F50D5F3FE4F3983ED4F38695779549
:101CC0006795B795F795E7959F5FC1F7FE2B880F4E
:101CD000911D9695879597F9089597FB072E16F411
:101CE000009407D077FD09D00E94900E07FC05D024
:101CF0003EF4909581959F4F0895709561957F4F23
:101D000008950E94200C332312F48A1B9B0B0C9421
:101D10008B0E0E94200CB7FF0895821B930B089531
:101D2000AA1BBB1B51E107C0AA1FBB1FA617B70701
:101D300010F0A61BB70B881F991F5A95A9F780951D
:101D40009095BC01CD010895EE0FFF1F0590F49111
:101D5000E02D099481E090E0F8940C94AF0EF89493
:021D6000FFCFB3
:101D620000000000F401000016021602000000004C
:101D7200E803000000000000E8030000000000008B
:101D8200C8000000017D603E7A635B5F707F7B77F5
:101D92004F1D0E6E1F1767470D467537060F6D02F2
:101DA20000338000000000AE0217024502FB0276FB
:0A1DB200025402680220000D0A002E
:107E0000112484B714BE81FFF0D085E080938100F7
:107E100082E08093C00088E18093C10086E0809377
:107E2000C20080E18093C4008EE0C9D0259A86E02C
:107E300020E33CEF91E0309385002093840096BBD3
:107E4000B09BFECF1D9AA8958150A9F7CC24DD24C4
:107E500088248394B5E0AB2EA1E19A2EF3E0BF2EE7
:107E6000A2D0813461F49FD0082FAFD0023811F036
:107E7000013811F484E001C083E08DD089C08234E0
:107E800011F484E103C0853419F485E0A6D080C0E4
:107E9000853579F488D0E82EFF2485D0082F10E0AE
:107EA000102F00270E291F29000F111F8ED06801E7
:107EB0006FC0863521F484E090D080E0DECF843638
:107EC00009F040C070D06FD0082F6DD080E0C81688
:107ED00080E7D80618F4F601B7BEE895C0E0D1E017
:107EE00062D089930C17E1F7F0E0CF16F0E7DF06D8
:107EF00018F0F601B7BEE89568D007B600FCFDCFD4
:107F0000A601A0E0B1E02C9130E011968C91119780
:107F100090E0982F8827822B932B1296FA010C0160
:107F200087BEE89511244E5F5F4FF1E0A038BF0790
:107F300051F7F601A7BEE89507B600FCFDCF97BE46
:107F4000E89526C08437B1F42ED02DD0F82E2BD052
:107F50003CD0F601EF2C8F010F5F1F4F84911BD097
:107F6000EA94F801C1F70894C11CD11CFA94CF0C13
:107F7000D11C0EC0853739F428D08EE10CD085E9AC
:107F80000AD08FE07ACF813511F488E018D01DD067
:107F900080E101D065CF982F8091C00085FFFCCF94
:107FA0009093C60008958091C00087FFFCCF809118
:107FB000C00084FD01C0A8958091C6000895E0E648
:107FC000F0E098E1908380830895EDDF803219F02E
:107FD00088E0F5DFFFCF84E1DECF1F93182FE3DFCA
:107FE0001150E9F7F2DF1F91089580E0E8DFEE27F6
:047FF000FF270994CA
:027FFE00040479
:0400000300007E007B
:00000001FF
